:040000000200543274
:03000B000200F3FD
:200010000000E2FBEAF2802C0000E0FBEAF08024E6B50202EBF62200E2B50202EBF22200D6
:20003000E0B50202EBF02230F6E0A88220F5D3EAC6F582228B822230F6E6A88220F5D980E6
:01005000CFE0
:2000AD00E4F510F511F512F513F51CF51DF51EF51FF520F5217522C07523F97524A4752501
:1600CD00B07526997527927528827529F8752A80752B90020051B4
:030051000202F2B6
:2000E300438901758CFC758A18D2AFD2A9D28C22C0E0C0D0758CFC758A18051EE4B51E0280
:20010300051FD0D0D0E032AE82AF838E048F051EBEFF011FEC4D70F3227F00BFFF00501C4C
:200123008F06EEF4F590901388C00712010AD0070FE5B020E5E590138802010A227F017EF4
:2001430001E5B020E50690138802010AEFF4F590901388C007C00612010AD006D007EE608B
:200163000AEF2FFFBF80DA7E0080D6EFC313FFBF01CF7E0180CB7F017E80E5B020E50975B5
:2001830090FF90138802010AEE4FF4F590901388C007C00612010AD006D007EF2FFFEEC38F
:2001A30013FEBF80D57F017E8080CFAE10AF11752C0A752D008E828F83C007C00612037348
:2001C300AC82D006D007752C0A752D008E828F83C00412034AAE82AF83D004752C0A752D2C
:2001E300008E828F83C007C006C004120373AB82D004D006D007752C0A752D008E828F83E4
:20020300C004C00312034AAE82AF83D003D004752C0A752D008E828F83C007C006C004C06C
:2002230003120373AA82D003D004D006D007752C0A752D008E828F83C004C003C0021203E3
:200243004AAE8275F00AEE84E5F02422F98780C2A09001F412010AD002D2A0EA2422F9872D
:2002630080C2A19001F412010AD003D2A1EB2422F98780C2A29001F412010AD004D2A2EC45
:200283002422F98780C2A39001F412010AD2A322E5B020E50690138802010A1201AEE5B049
:2002A30020E32390138812010AE5B020E3180510E4B510020511C3740F95107427951150CB
:2002C30005E4F510F511E5B020E2C590138812010AE5B020E2BAE5104511700875100F7566
:2002E300112780AC151074FFB51002151180A11200E3E5B0FF20E518051CE4B51C02051D51
:20030300C37405951CE4951D5006751C01751D00C37404951CE4951D40D8E51C75F003A436
:20032300900327730202F502033602033B02034002034512011C80BA12014080B51201790D
:0703430080B012029380ABB1
:0403C400E80300004A
:20034A007A10E4FBFCE58225E0F582E58333F583EB33FBEC33FCEB952CF5F0EC952D40067F
:09036A00FCABF0438201DADD2254
:06008300E478FFF6D8FD51
:200061007900E94400601B7A009003C8780175A000E493F2A308B8000205A0D9F4DAF2757A
:02008100A0FFDE
:20037300E52C452D60467A01E52C25E0F52CE52D334012F52DE582952CE583952D40030A37
:2003930080E6C3E52D13F52DE52C13F52CC3E582952CF5F0E583952D4005F58385F082C324
:0D03B300E52D13F52DE52C13F52CDAE122D4
:200089007800E84400600A790175A000E4F309D8FC7800E84400600C7900900001E4F0A375
:0400A900D8FCD9FAAC
:0D00540075812D1203C0E58260030200518A
:0403C0007582002220
:00000001FF
