:040000000200543274
:03000B000200EB05
:200010000000E2FBEAF2802C0000E0FBEAF08024E6B50202EBF62200E2B50202EBF22200D6
:20003000E0B50202EBF02230F6E0A88220F5D3EAC6F582228B822230F6E6A88220F5D980E6
:01005000CFE0
:2000AD00E4F510F511F512F513F51CF51D751EC0751FF97520A47521B075229975239275E4
:0E00CD0024827525F875268075279002005153
:030051000202DACE
:2000DB00438901758CFC758A18D2AFD2A9D28C22758CFC758A1832AE82AF838E048F051EBC
:2000FB00BEFF011FEC4D70F3227E007F008E05EDF4F5909007D0C007C0061200F2D006D0B6
:20011B00070EBE00010FE5B020E5069013880200F274FF2F50D7227F017E01E5B020E50698
:20013B009013880200F2EFF4F590901388C007C0061200F2D006D007EE600AEF2FFFBF8000
:20015B00DA7E0080D6EFC313FFBF01CF7E0180CB7F017E80E5B020E5097590FF9013880267
:20017B0000F2EE4FF4F590901388C007C0061200F2D006D007EF2FFFEEC313FEBF80D57FE1
:20019B00017E8080CFAE10AF1175280A7529008E828F83C007C006120358AC82D006D0073C
:2001BB0075280A7529008E828F83C00412032FAE82AF83D00475280A7529008E828F83C058
:2001DB0007C006C004120358AB82D004D006D00775280A7529008E828F83C004C003120355
:2001FB002FAE82AF83D003D00475280A7529008E828F83C007C006C004C003120358AA8298
:20021B00D003D004D006D00775280A7529008E828F83C004C003C00212032FAE8275F00ADC
:20023B00EE84E5F0241EF98780C2A09001F41200F2D002D2A0EA241EF98780C2A19001F4D7
:20025B001200F2D003D2A1EB241EF98780C2A29001F41200F2D004D2A2EC241EF98780C2E7
:20027B00A39001F41200F2D2A322E5B020E5069013880200F21201A0E5B020E31E9013884D
:20029B001200F20510E4B510020511C3740F9510742795115005E4F510F511E5B020E2CA98
:2002BB009013881200F2E5104511700875100F75112780B6151074FFB51002151180ABE525
:2002DB00B0FF20E518051CE4B51C02051DC37405951CE4951D5006751C01751D00C3740405
:2002FB00951CE4951D40D8E51C75F003A490030C730202DA02031B02032002032502032AE9
:14031B0012010480BA12013280B512016B80B012028580AB91
:0403A900E803000065
:20032F007A10E4FBFCE58225E0F582E58333F583EB33FBEC33FCEB9528F5F0EC95294006A2
:09034F00FCABF0438201DADD226F
:06008300E478FFF6D8FD51
:200061007900E94400601B7A009003AD780175A000E493F2A308B8000205A0D9F4DAF27595
:02008100A0FFDE
:20035800E528452960467A01E52825E0F528E529334012F529E5829528E583952940030A72
:2003780080E6C3E52913F529E52813F528C3E5829528F5F0E58395294005F58385F082C357
:0D039800E52913F529E52813F528DAE122FF
:200089007800E84400600A790175A000E4F309D8FC7800E84400600C7900900001E4F0A375
:0400A900D8FCD9FAAC
:0D0054007581291203A5E5826003020051A9
:0403A500758200223B
:00000001FF
