:0300000002004CAF
:200008000000E2FBEAF2802C0000E0FBEAF08024E6B50202EBF62200E2B50202EBF22200DE
:20002800E0B50202EBF02230F6E0A88220F5D3EAC6F582228B822230F6E6A88220F5D980EE
:01004800CFE8
:2000A500E4F508F509F50AF50B750CC0750DF9750EA4750FB075109975119275128275137F
:0A00C500F8751480751590020049CB
:0300490002027937
:2000CF00AE82AF838E048F051EBEFF011FEC4D70F322E5B020E20C050AE4B50A02050B90D9
:2000EF000000227F00EFF4F5909001F4C0071200CFD0070FBFFFEE900000227F01EFF4F51F
:20010F0090901388C0071200CFD007EF2FFF70ED7F0180E97F017E80EE4FF4F590901388D4
:20012F00C007C0061200CFD006D007EF2FFFEEC313FEBF80E37F017E8080DDAE08AF0975D6
:20014F00160A7517008E828F83C007C0061202A7AC82D006D00775160A7517008E828F835C
:20016F00C00412027EAE82AF83D00475160A7517008E828F83C007C006C0041202A7AB8268
:20018F00D004D006D00775160A7517008E828F83C004C00312027EAE82AF83D003D00475F5
:2001AF00160A7517008E828F83C007C006C004C0031202A7AA82D003D004D006D007751688
:2001CF000A7517008E828F83C004C003C00212027EAE8275F00AEE84E5F0240CF98780C2A5
:2001EF00A09001F41200CFD002D2A0EA240CF98780C2A19001F41200CFD003D2A1EB240C62
:20020F00F98780C2A29001F41200CFD004D2A2EC240CF98780C2A39001F41200CFD2A3223F
:20022F00E5B020E31E904E201200CF0508E4B508020509C3740F9508742795095005E4F512
:20024F0008F509E5B020E21D904E201200CFE5084509700875080F7509278009150874FFF9
:0F026F00B50802150912014A80B612022F80FB52
:20027E007A10E4FBFCE58225E0F582E58333F583EB33FBEC33FCEB9516F5F0EC9517400678
:09029E00FCABF0438201DADD2221
:06007B00E478FFF6D8FD59
:200059007900E94400601B7A009002F8780175A000E493F2A308B8000205A0D9F4DAF27553
:02007900A0FFE6
:2002A700E516451760467A01E51625E0F516E517334012F517E5829516E583951740030AB4
:2002C70080E6C3E51713F517E51613F516C3E5829516F5F0E58395174005F58385F082C375
:0D02E700E51713F517E51613F516DAE122F9
:200081007800E84400600A790175A000E4F309D8FC7800E84400600C7900900001E4F0A37D
:0400A100D8FCD9FAB4
:0D004C007581171202F4E58260030200497D
:0402F40075820022ED
:00000001FF
