:0400000002007E324A
:03000B00020115DA
:200010000000E2FBEAF2802C0000E0FBEAF08024E6B50202EBF62200E2B50202EBF22200D6
:20003000E0B50202EBF02230F6E0A88220F5D3EAC6F582228B822230F6E6A88220F5D980E6
:01005000CFE0
:2000D700E4F521F522F523F524F52DF52E752FC07530F97531A47532B075339975349275EE
:0E00F70035827536F8753780753890020051E5
:0300510002039A0D
:20010500438901758CFC758A18D2AFD2A9D28C22C020C0E0C0F0C082C083C007C006C00576
:20012500C004C003C002C001C000C0D075D008758CFC758A18052DE4B52D02052EC3740596
:20014500952DE4952E5006752D01752E00C37404952DE4952E4043E52D75F003A490016659
:200165007302019F02017502018002018B02019675D0001201D075D008801F75D0001201D7
:20018500FB75D008801475D00012023175D008800975D00012034875D008D0D0D000D001EE
:2001A500D002D003D004D005D006D007D083D082D0F0D0E0D020020054AE82AF838E048F61
:2001C500051EBEFF011FEC4D70F3227E007F008E05EDF4F5909007D0C007C0061201BED0D1
:2001E50006D0070EBE00010FE5B020E50302011574FF2F50DA227F017E01E5B020E5030200
:200205000115EFF4F590901388C007C0061201BED006D007EE600AEF2FFFBF80DD7E008096
:20022500D9EFC313FFBF01D27E0180CE7F017E80E5B020E5067590FF020115EE4FF4F590CD
:20024500901388C007C0061201BED006D007EF2FFFEEC313FEBF80D87F017E8080D2AE21CE
:20026500AF2275100A7511008E828F83C007C0061203C8AC82D006D00775100A7511008E89
:20028500828F83C00412039FAE82AF83D00475100A7511008E828F83C007C006C00412037A
:2002A500C8AB82D004D006D00775100A7511008E828F83C004C00312039FAE82AF83D0031C
:2002C500D00475100A7511008E828F83C007C006C004C0031203C8AA82D003D004D006D0A4
:2002E5000775100A7511008E828F83C004C003C00212039FAE8275F00AEE84E5F0242FF98C
:200305008780C2A09001F41201BED002D2A0EA242FF98780C2A19001F41201BED003D2A199
:20032500EB242FF98780C2A29001F41201BED004D2A2EC242FF98780C2A39001F41201BE7E
:20034500D2A322E5B020E503020115120263E5B020E31E9013881201BE0521E4B52102053C
:2003650022C3740F9521742795225005E4F521F522E5B020E2CD9013881201BEE5214522D5
:1A038500700875210F75222780B9152174FFB52102152280AE12010580FECE
:04041900E8030000F4
:20039F007A10E4FBFCE58225E0F582E58333F583EB33FBEC33FCEB9510F5F0EC9511400662
:0903BF00FCABF0438201DADD22FF
:0600AD00E478FFF6D8FD27
:20008B007900E94400601B7A0090041D780175A000E493F2A308B8000205A0D9F4DAF275FA
:0200AB00A0FFB4
:20005400C000A88118C0D0B6001B18B610004015B637005010C0E0E65407B406005004E6D5
:0A00740054F8F6D0E0D0D0D00032EE
:2003C800E510451160467A01E51025E0F510E511334012F511E5829510E583951140030AC2
:2003E80080E6C3E51113F511E51013F510C3E5829510F5F0E58395114005F58385F082C377
:0D040800E51113F511E51013F510DAE122EE
:2000B3007800E84400600A790175A000E4F309D8FC7800E84400600C7900900001E4F0A34B
:0400D300D8FCD9FA82
:0D007E00758138120415E5826003020051FF
:0404150075820022CA
:00000001FF
