:0300000002004CAF
:200008000000E2FBEAF2802C0000E0FBEAF08024E6B50202EBF62200E2B50202EBF22200DE
:20002800E0B50202EBF02230F6E0A88220F5D3EAC6F582228B822230F6E6A88220F5D980EE
:01004800CFE8
:2000A500E4F508F509F50AF50B7514C07515F97516A47517B0751899751992751A82751B3F
:0A00C500F8751C80751D90020049BB
:030049000202446C
:2000CF00AE82AF838E048F051EBEFF011FEC4D70F3227E007F008E05EDF4F590901388C0EF
:2000EF0007C0061200CFD006D0070EBE00010F74FF2F50E2227590FE9013880200CF7590C0
:20010F007E9013880200CFAE08AF09751E0A751F008E828F83C007C006120272AC82D0067E
:20012F00D007751E0A751F008E828F83C004120249AE82AF83D004751E0A751F008E828F5F
:20014F0083C007C006C004120272AB82D004D006D007751E0A751F008E828F83C004C003AE
:20016F00120249AE82AF83D003D004751E0A751F008E828F83C007C006C004C0031202721D
:20018F00AA82D003D004D006D007751E0A751F008E828F83C004C003C002120249AE827532
:2001AF00F00AEE84E5F02414F98780C2A09001F41200CFD002D2A0EA2414F98780C2A19096
:2001CF0001F41200CFD003D2A1EB2414F98780C2A29001F41200CFD004D2A2EC2414F9871B
:2001EF0080C2A39001F41200CFD2A322E5B020E31E9013881200CF0508E4B508020509C3CB
:20020F00740F9508742795095005E4F508F509E5B05412701D9013881200CFE50845097003
:1A022F000875080F7509278009150874FFB5080215090201161201FB80FBE4
:0402C300E80300004C
:200249007A10E4FBFCE58225E0F582E58333F583EB33FBEC33FCEB951EF5F0EC951F40069D
:09026900FCABF0438201DADD2256
:06007B00E478FFF6D8FD59
:200059007900E94400601B7A009002C7780175A000E493F2A308B8000205A0D9F4DAF27584
:02007900A0FFE6
:20027200E51E451F60467A01E51E25E0F51EE51F334012F51FE582951EE583951F40030AA9
:2002920080E6C3E51F13F51FE51E13F51EC3E582951EF5F0E583951F4005F58385F082C37A
:0D02B200E51F13F51FE51E13F51EDAE1220E
:200081007800E84400600A790175A000E4F309D8FC7800E84400600C7900900001E4F0A37D
:0400A100D8FCD9FAB4
:0D004C0075811F1202BFE5826003020049AA
:0402BF007582002222
:00000001FF
