:0300000002004CAF
:200008000000E2FBEAF2802C0000E0FBEAF08024E6B50202EBF62200E2B50202EBF22200DE
:20002800E0B50202EBF02230F6E0A88220F5D3EAC6F582228B822230F6E6A88220F5D980EE
:01004800CFE8
:0300A5000200490D
:030049000200FEB4
:2000A800AE82AF838E048F051EBEFF011FEC4D70F322D2B1D2B222D2B1D2B2900001120024
:2000C800A8C2B2C2B122C2B2D2B2C2B122D2B2D2B122D2B2D2B122D2B2D2B1221200BFD2BC
:1C00E800B2D2B19000011200A8C2B1C2B29000011200A80200CE1200BA0200E4C8
:06007B00E478FFF6D8FD59
:200059007900E94400601B7A00900108780175A000E493F2A308B8000205A0D9F4DAF27544
:02007900A0FFE6
:200081007800E84400600A790175A000E4F309D8FC7800E84400600C7900900001E4F0A37D
:0400A100D8FCD9FAB4
:0D004C00758107120104E58260030200497E
:0401040075820022DE
:00000001FF
