:0300000002004CAF
:200008000000E2FBEAF2802C0000E0FBEAF08024E6B50202EBF62200E2B50202EBF22200DE
:20002800E0B50202EBF02230F6E0A88220F5D3EAC6F582228B822230F6E6A88220F5D980EE
:01004800CFE8
:2000A5007508C07509F9750AA4750BB0750C99750D92750E82750FF8751080751190E4F591
:0600C50012F513020049D0
:0300490002020CA4
:2000CB00AE82AF838E048F051EBEFF011FEC4D70F322AE12AF1375140A7515008E828F8313
:2000EB00C007C006120238AC82D006D00775140A7515008E828F83C00412020FAE82AF83B9
:20010B00D00475140A7515008E828F83C007C006C004120238AB82D004D006D00775140AE3
:20012B007515008E828F83C004C00312020FAE82AF83D003D00475140A7515008E828F8316
:20014B00C007C006C004C003120238AA82D003D004D006D00775140A7515008E828F83C0B5
:20016B0004C003C00212020FAE8275F00AEE84E5F02408F98780C2A09001F41200CBD00220
:20018B00D2A0EA2408F98780C2A19001F41200CBD003D2A1EB2408F98780C2A29001F412AF
:2001AB0000CBD004D2A2EC2408F98780C2A39001F41200CBD2A322E5B020E31E904E2012E5
:2001CB0000CB0512E4B512020513C3740F9512742795135005E4F512F513E5B020E21D90B1
:2001EB004E201200CBE5124513700875120F7513278009151274FFB5120215131200DD801A
:04020B00B60201C274
:20020F007A10E4FBFCE58225E0F582E58333F583EB33FBEC33FCEB9514F5F0EC95154006EB
:09022F00FCABF0438201DADD2290
:06007B00E478FFF6D8FD59
:200059007900E94400601B7A00900289780175A000E493F2A308B8000205A0D9F4DAF275C2
:02007900A0FFE6
:20023800E514451560467A01E51425E0F514E515334012F515E5829514E583951540030A33
:2002580080E6C3E51513F515E51413F514C3E5829514F5F0E58395154005F58385F082C3F0
:0D027800E51513F515E51413F514DAE12270
:200081007800E84400600A790175A000E4F309D8FC7800E84400600C7900900001E4F0A37D
:0400A100D8FCD9FAB4
:0D004C00758115120285E5826003020049EE
:04028500758200225C
:00000001FF
