:0300000002004CAF
:200008000000E2FBEAF2802C0000E0FBEAF08024E6B50202EBF62200E2B50202EBF22200DE
:20002800E0B50202EBF02230F6E0A88220F5D3EAC6F582228B822230F6E6A88220F5D980EE
:01004800CFE8
:2000A5007508C07509F9750AA4750BB0750C99750D92750E82750FF8751080751190020068
:0100C50049F1
:0300490002011899
:2000C600AE82AF83EE4F60147C7D7D001CBCFF011DEC4D70F71EBEFF011F80E8228508806A
:2000E600C2A09000051200C6D2A0850880C2A19000051200C6D2A1850A80C2A2900005124F
:2001060000C6D2A2850B80C2A39000051200C6D2A3227E647F00C007C0061200E3D006D09D
:0C012600071EBEFF011FEE4F70EC80E6CC
:06007B00E478FFF6D8FD59
:200059007900E94400601B7A00900136780175A000E493F2A308B8000205A0D9F4DAF27516
:02007900A0FFE6
:200081007800E84400600A790175A000E4F309D8FC7800E84400600C7900900001E4F0A37D
:0400A100D8FCD9FAB4
:0D004C00758111120132E582600302004946
:0401320075820022B0
:00000001FF
