:0300000002004CAF
:200008000000E2FBEAF2802C0000E0FBEAF08024E6B50202EBF62200E2B50202EBF22200DE
:20002800E0B50202EBF02230F6E0A88220F5D3EAC6F582228B822230F6E6A88220F5D980EE
:01004800CFE8
:2000A500E4F508F509F50AF50BF514F5157516C07517F97518A47519B0751A99751B92754C
:0E00C5001C82751DF8751E80751F9002004983
:030049000202BBF5
:2000D300AE82AF838E048F051EBEFF011FEC4D70F3227E007F008E05EDF4F5909007D0C0AF
:2000F30007C0061200D3D006D0070EBE00010FE5B020E5069013880200D374FF2F50D72227
:200113007F017E01E5B020E5069013880200D3EFF4F590901388C007C0061200D3D006D082
:2001330007EE600AEF2FFFBF80DA7E0080D6EFC313FFBF01CF7E0180CB7F017E80E5B020F3
:20015300E5097590FF9013880200D3EE4FF4F590901388C007C0061200D3D006D007EF2F7C
:20017300FFEEC313FEBF80D57F017E8080CFAE08AF0975200A7521008E828F83C007C00678
:20019300120339AC82D006D00775200A7521008E828F83C004120310AE82AF83D004752018
:2001B3000A7521008E828F83C007C006C004120339AB82D004D006D00775200A7521008E5A
:2001D300828F83C004C003120310AE82AF83D003D00475200A7521008E828F83C007C006DF
:2001F300C004C003120339AA82D003D004D006D00775200A7521008E828F83C004C003C0F9
:2002130002120310AE8275F00AEE84E5F02416F98780C2A09001F41200D3D002D2A0EA2466
:2002330016F98780C2A19001F41200D3D003D2A1EB2416F98780C2A29001F41200D3D004BB
:20025300D2A2EC2416F98780C2A39001F41200D3D2A322E5B020E5069013880200D31201D8
:2002730081E5B020E31E9013881200D30508E4B508020509C3740F9508742795095005E411
:20029300F508F509E5B020E2CA9013881200D3E5084509700875080F75092780B615087434
:2002B300FFB50802150980ABE5B0FF20E5180514E4B514020515C374059514E495155006C8
:2002D300751401751500C374049514E4951540D8E51475F003A49002ED730202BB0202FCB7
:1D02F30002030102030602030B1200E580BA12011380B512014C80B012026680AB0D
:04038A00E803000084
:200310007A10E4FBFCE58225E0F582E58333F583EB33FBEC33FCEB9520F5F0EC95214006D1
:09033000FCABF0438201DADD228E
:06007B00E478FFF6D8FD59
:200059007900E94400601B7A0090038E780175A000E493F2A308B8000205A0D9F4DAF275BC
:02007900A0FFE6
:20033900E520452160467A01E52025E0F520E521334012F521E5829520E583952140030AD1
:2003590080E6C3E52113F521E52013F520C3E5829520F5F0E58395214005F58385F082C3A6
:0D037900E52113F521E52013F520DAE1223E
:200081007800E84400600A790175A000E4F309D8FC7800E84400600C7900900001E4F0A37D
:0400A100D8FCD9FAB4
:0D004C00758121120386E5826003020049E0
:04038600758200225A
:00000001FF
