:040000000200543274
:03000B000200D21E
:200010000000E2FBEAF2802C0000E0FBEAF08024E6B50202EBF62200E2B50202EBF22200D6
:20003000E0B50202EBF02230F6E0A88220F5D3EAC6F582228B822230F6E6A88220F5D980E6
:01005000CFE0
:0300AD00020051FD
:030051000200E1C9
:2000B000AE82AF838E048F051EBEFF011FEC4D70F322438901758C00758A00D2AFD2A9D254
:1900D0008C22C0E0E4F58CF58AE590F4F590D0E0321200C275900080FEBE
:06008300E478FFF6D8FD51
:200061007900E94400601B7A009000ED780175A000E493F2A308B8000205A0D9F4DAF27558
:02008100A0FFDE
:200089007800E84400600A790175A000E4F309D8FC7800E84400600C7900900001E4F0A375
:0400A900D8FCD9FAAC
:0D00540075810F1200E9E582600302005182
:0400E90075820022FA
:00000001FF
